{
  "contractName": "MonkeBonfire",
  "abi": [
    {
      "inputs": [
        {
          "internalType": "address",
          "name": "_monke_token",
          "type": "address"
        },
        {
          "internalType": "address",
          "name": "_banana_token",
          "type": "address"
        }
      ],
      "stateMutability": "nonpayable",
      "type": "constructor"
    },
    {
      "anonymous": false,
      "inputs": [
        {
          "indexed": true,
          "internalType": "address",
          "name": "previousOwner",
          "type": "address"
        },
        {
          "indexed": true,
          "internalType": "address",
          "name": "newOwner",
          "type": "address"
        }
      ],
      "name": "OwnershipTransferred",
      "type": "event"
    },
    {
      "anonymous": false,
      "inputs": [
        {
          "indexed": false,
          "internalType": "address",
          "name": "from",
          "type": "address"
        },
        {
          "indexed": false,
          "internalType": "uint256",
          "name": "amount",
          "type": "uint256"
        }
      ],
      "name": "Swap",
      "type": "event"
    },
    {
      "inputs": [],
      "name": "BURN_ADDRESS",
      "outputs": [
        {
          "internalType": "address",
          "name": "",
          "type": "address"
        }
      ],
      "stateMutability": "view",
      "type": "function"
    },
    {
      "inputs": [],
      "name": "BURN_RATIO",
      "outputs": [
        {
          "internalType": "uint256",
          "name": "",
          "type": "uint256"
        }
      ],
      "stateMutability": "view",
      "type": "function"
    },
    {
      "inputs": [],
      "name": "owner",
      "outputs": [
        {
          "internalType": "address",
          "name": "",
          "type": "address"
        }
      ],
      "stateMutability": "view",
      "type": "function"
    },
    {
      "inputs": [],
      "name": "renounceOwnership",
      "outputs": [],
      "stateMutability": "nonpayable",
      "type": "function"
    },
    {
      "inputs": [
        {
          "internalType": "address",
          "name": "newOwner",
          "type": "address"
        }
      ],
      "name": "transferOwnership",
      "outputs": [],
      "stateMutability": "nonpayable",
      "type": "function"
    },
    {
      "inputs": [
        {
          "internalType": "uint256",
          "name": "_amount",
          "type": "uint256"
        }
      ],
      "name": "swap",
      "outputs": [],
      "stateMutability": "nonpayable",
      "type": "function"
    }
  ],
  "bytecode": "0x608060405234801561001057600080fd5b50604051610dbc380380610dbc83398181016040528101906100329190610186565b600061004261016960201b60201c565b9050806000806101000a81548173ffffffffffffffffffffffffffffffffffffffff021916908373ffffffffffffffffffffffffffffffffffffffff1602179055508073ffffffffffffffffffffffffffffffffffffffff16600073ffffffffffffffffffffffffffffffffffffffff167f8be0079c531659141344cd1fd0a4f28419497f9722a3daafe3b4186f6b6457e060405160405180910390a35081600160006101000a81548173ffffffffffffffffffffffffffffffffffffffff021916908373ffffffffffffffffffffffffffffffffffffffff16021790555080600260006101000a81548173ffffffffffffffffffffffffffffffffffffffff021916908373ffffffffffffffffffffffffffffffffffffffff160217905550505061020b565b600033905090565b600081519050610180816101f4565b92915050565b6000806040838503121561019957600080fd5b60006101a785828601610171565b92505060206101b885828601610171565b9150509250929050565b60006101cd826101d4565b9050919050565b600073ffffffffffffffffffffffffffffffffffffffff82169050919050565b6101fd816101c2565b811461020857600080fd5b50565b610ba28061021a6000396000f3fe608060405234801561001057600080fd5b50600436106100625760003560e01c806355de022514610067578063715018a6146100855780638da5cb5b1461008f57806394b918de146100ad578063f2fde38b146100c9578063fccc2813146100e5575b600080fd5b61006f610103565b60405161007c9190610884565b60405180910390f35b61008d610109565b005b610097610243565b6040516100a491906107c0565b60405180910390f35b6100c760048036038101906100c291906106ed565b61026c565b005b6100e360048036038101906100de919061069b565b6104a5565b005b6100ed61064e565b6040516100fa91906107c0565b60405180910390f35b6103e881565b610111610654565b73ffffffffffffffffffffffffffffffffffffffff1661012f610243565b73ffffffffffffffffffffffffffffffffffffffff1614610185576040517f08c379a000000000000000000000000000000000000000000000000000000000815260040161017c90610844565b60405180910390fd5b600073ffffffffffffffffffffffffffffffffffffffff1660008054906101000a900473ffffffffffffffffffffffffffffffffffffffff1673ffffffffffffffffffffffffffffffffffffffff167f8be0079c531659141344cd1fd0a4f28419497f9722a3daafe3b4186f6b6457e060405160405180910390a360008060006101000a81548173ffffffffffffffffffffffffffffffffffffffff021916908373ffffffffffffffffffffffffffffffffffffffff160217905550565b60008060009054906101000a900473ffffffffffffffffffffffffffffffffffffffff16905090565b6103e88110156102b1576040517f08c379a00000000000000000000000000000000000000000000000000000000081526004016102a890610824565b60405180910390fd5b60006103e8826102c19190610906565b9050600081836102d19190610937565b9050600033905081836102e491906108b0565b8414610325576040517f08c379a000000000000000000000000000000000000000000000000000000000815260040161031c90610864565b60405180910390fd5b600160009054906101000a900473ffffffffffffffffffffffffffffffffffffffff1673ffffffffffffffffffffffffffffffffffffffff1663a9059cbb61dead846040518363ffffffff1660e01b81526004016103849291906107db565b602060405180830381600087803b15801561039e57600080fd5b505af11580156103b2573d6000803e3d6000fd5b505050506040513d601f19601f820116820180604052508101906103d691906106c4565b50600260009054906101000a900473ffffffffffffffffffffffffffffffffffffffff1673ffffffffffffffffffffffffffffffffffffffff166340c10f1982856040518363ffffffff1660e01b81526004016104349291906107db565b600060405180830381600087803b15801561044e57600080fd5b505af1158015610462573d6000803e3d6000fd5b505050507f562c219552544ec4c9d7a8eb850f80ea152973e315372bf4999fe7c953ea004f81856040516104979291906107db565b60405180910390a150505050565b6104ad610654565b73ffffffffffffffffffffffffffffffffffffffff166104cb610243565b73ffffffffffffffffffffffffffffffffffffffff1614610521576040517f08c379a000000000000000000000000000000000000000000000000000000000815260040161051890610844565b60405180910390fd5b600073ffffffffffffffffffffffffffffffffffffffff168173ffffffffffffffffffffffffffffffffffffffff161415610591576040517f08c379a000000000000000000000000000000000000000000000000000000000815260040161058890610804565b60405180910390fd5b8073ffffffffffffffffffffffffffffffffffffffff1660008054906101000a900473ffffffffffffffffffffffffffffffffffffffff1673ffffffffffffffffffffffffffffffffffffffff167f8be0079c531659141344cd1fd0a4f28419497f9722a3daafe3b4186f6b6457e060405160405180910390a3806000806101000a81548173ffffffffffffffffffffffffffffffffffffffff021916908373ffffffffffffffffffffffffffffffffffffffff16021790555050565b61dead81565b600033905090565b60008135905061066b81610b27565b92915050565b60008151905061068081610b3e565b92915050565b60008135905061069581610b55565b92915050565b6000602082840312156106ad57600080fd5b60006106bb8482850161065c565b91505092915050565b6000602082840312156106d657600080fd5b60006106e484828501610671565b91505092915050565b6000602082840312156106ff57600080fd5b600061070d84828501610686565b91505092915050565b61071f8161096b565b82525050565b600061073260268361089f565b915061073d82610a11565b604082019050919050565b600061075560248361089f565b915061076082610a60565b604082019050919050565b600061077860208361089f565b915061078382610aaf565b602082019050919050565b600061079b60228361089f565b91506107a682610ad8565b604082019050919050565b6107ba816109a9565b82525050565b60006020820190506107d56000830184610716565b92915050565b60006040820190506107f06000830185610716565b6107fd60208301846107b1565b9392505050565b6000602082019050818103600083015261081d81610725565b9050919050565b6000602082019050818103600083015261083d81610748565b9050919050565b6000602082019050818103600083015261085d8161076b565b9050919050565b6000602082019050818103600083015261087d8161078e565b9050919050565b600060208201905061089960008301846107b1565b92915050565b600082825260208201905092915050565b60006108bb826109a9565b91506108c6836109a9565b9250827fffffffffffffffffffffffffffffffffffffffffffffffffffffffffffffffff038211156108fb576108fa6109b3565b5b828201905092915050565b6000610911826109a9565b915061091c836109a9565b92508261092c5761092b6109e2565b5b828204905092915050565b6000610942826109a9565b915061094d836109a9565b9250828210156109605761095f6109b3565b5b828203905092915050565b600061097682610989565b9050919050565b60008115159050919050565b600073ffffffffffffffffffffffffffffffffffffffff82169050919050565b6000819050919050565b7f4e487b7100000000000000000000000000000000000000000000000000000000600052601160045260246000fd5b7f4e487b7100000000000000000000000000000000000000000000000000000000600052601260045260246000fd5b7f4f776e61626c653a206e6577206f776e657220697320746865207a65726f206160008201527f6464726573730000000000000000000000000000000000000000000000000000602082015250565b7f4d6f6e6b653a3a626f6e666972653a20496e7075742076616c756520746f6f2060008201527f6c6f772e00000000000000000000000000000000000000000000000000000000602082015250565b7f4f776e61626c653a2063616c6c6572206973206e6f7420746865206f776e6572600082015250565b7f4d6f6e6b653a3a626f6e666972653a204275726e2076616c756520696e76616c60008201527f6964000000000000000000000000000000000000000000000000000000000000602082015250565b610b308161096b565b8114610b3b57600080fd5b50565b610b478161097d565b8114610b5257600080fd5b50565b610b5e816109a9565b8114610b6957600080fd5b5056fea2646970667358221220b354aa28671b1b3397e6ff0eae401cbf458cf0f6febdd3e10854cbcb6665e0bb64736f6c63430008040033",
  "immutableReferences": {},
  "source": "// contracts/MonkeBonfire.sol\r\n// SPDX-License-Identifier: MIT\r\npragma solidity ^0.8.4;\r\n\r\nimport \"@openzeppelin/contracts/token/ERC20/ERC20.sol\";\r\nimport \"@openzeppelin/contracts/access/Ownable.sol\";\r\nimport \"./Naner.sol\";\r\n\r\ncontract MonkeBonfire is Ownable {\r\n\r\n    // Burn address\r\n    address public constant BURN_ADDRESS = 0x000000000000000000000000000000000000dEaD;\r\n    uint public constant BURN_RATIO = 1000;\r\n\r\n    ERC20 monke_token;\r\n    Naner banana_token;\r\n\r\n    event Swap(address from, uint amount);\r\n\r\n    constructor(address _monke_token, address _banana_token) {\r\n        monke_token = ERC20(_monke_token);\r\n        banana_token = Naner(_banana_token);\r\n    }\r\n\r\n    function swap(uint _amount) public {\r\n        require(_amount >= BURN_RATIO, \"Monke::bonfire: Input value too low.\");\r\n        // 20% of transfer sent to recipient\r\n        uint256 sendAmount = _amount / BURN_RATIO;//divides with integrated sol 0.8 safemath\r\n        // 80% of transfer sent to burn address\r\n        uint256 burnAmount = _amount - sendAmount;\r\n        address _from = msg.sender;\r\n        require(_amount == sendAmount + burnAmount, \"Monke::bonfire: Burn value invalid\");\r\n        monke_token.transfer(BURN_ADDRESS, burnAmount);\r\n        banana_token.mint(_from, sendAmount);\r\n        emit Swap(_from, _amount);\r\n    }\r\n\r\n}",
  "sourcePath": "H:/DEVELOPER/PROJECTS/monke_bonfire/contracts/MonkeBonfire.sol",
  "compiler": {
    "name": "solc",
    "version": "0.8.4+commit.c7e474f2.Emscripten.clang"
  },
  "schemaVersion": "3.4.1",
  "updatedAt": "2021-05-16T23:38:45.140Z",
  "devdoc": {
    "kind": "dev",
    "methods": {
      "owner()": {
        "details": "Returns the address of the current owner."
      },
      "renounceOwnership()": {
        "details": "Leaves the contract without owner. It will not be possible to call `onlyOwner` functions anymore. Can only be called by the current owner. NOTE: Renouncing ownership will leave the contract without an owner, thereby removing any functionality that is only available to the owner."
      },
      "transferOwnership(address)": {
        "details": "Transfers ownership of the contract to a new account (`newOwner`). Can only be called by the current owner."
      }
    },
    "version": 1
  },
  "userdoc": {
    "kind": "user",
    "methods": {},
    "version": 1
  }
}