{
  "contractName": "MonkeBonfire",
  "abi": [
    {
      "inputs": [
        {
          "internalType": "address",
          "name": "_monke_token",
          "type": "address"
        },
        {
          "internalType": "address",
          "name": "_banana_token",
          "type": "address"
        }
      ],
      "stateMutability": "nonpayable",
      "type": "constructor"
    },
    {
      "anonymous": false,
      "inputs": [
        {
          "indexed": true,
          "internalType": "address",
          "name": "previousOwner",
          "type": "address"
        },
        {
          "indexed": true,
          "internalType": "address",
          "name": "newOwner",
          "type": "address"
        }
      ],
      "name": "OwnershipTransferred",
      "type": "event"
    },
    {
      "anonymous": false,
      "inputs": [
        {
          "indexed": false,
          "internalType": "address",
          "name": "from",
          "type": "address"
        },
        {
          "indexed": false,
          "internalType": "uint256",
          "name": "amount",
          "type": "uint256"
        }
      ],
      "name": "Swap",
      "type": "event"
    },
    {
      "inputs": [],
      "name": "BURN_ADDRESS",
      "outputs": [
        {
          "internalType": "address",
          "name": "",
          "type": "address"
        }
      ],
      "stateMutability": "view",
      "type": "function"
    },
    {
      "inputs": [],
      "name": "BURN_RATIO",
      "outputs": [
        {
          "internalType": "uint256",
          "name": "",
          "type": "uint256"
        }
      ],
      "stateMutability": "view",
      "type": "function"
    },
    {
      "inputs": [],
      "name": "owner",
      "outputs": [
        {
          "internalType": "address",
          "name": "",
          "type": "address"
        }
      ],
      "stateMutability": "view",
      "type": "function"
    },
    {
      "inputs": [],
      "name": "renounceOwnership",
      "outputs": [],
      "stateMutability": "nonpayable",
      "type": "function"
    },
    {
      "inputs": [
        {
          "internalType": "address",
          "name": "newOwner",
          "type": "address"
        }
      ],
      "name": "transferOwnership",
      "outputs": [],
      "stateMutability": "nonpayable",
      "type": "function"
    },
    {
      "inputs": [
        {
          "internalType": "uint256",
          "name": "_amount",
          "type": "uint256"
        }
      ],
      "name": "swap",
      "outputs": [],
      "stateMutability": "nonpayable",
      "type": "function"
    }
  ],
  "bytecode": "0x60806040523480156200001157600080fd5b50604051620011d8380380620011d8833981810160405281019062000037919062000190565b6000620000496200017160201b60201c565b9050806000806101000a81548173ffffffffffffffffffffffffffffffffffffffff021916908373ffffffffffffffffffffffffffffffffffffffff1602179055508073ffffffffffffffffffffffffffffffffffffffff16600073ffffffffffffffffffffffffffffffffffffffff167f8be0079c531659141344cd1fd0a4f28419497f9722a3daafe3b4186f6b6457e060405160405180910390a35081600160006101000a81548173ffffffffffffffffffffffffffffffffffffffff021916908373ffffffffffffffffffffffffffffffffffffffff16021790555080600260006101000a81548173ffffffffffffffffffffffffffffffffffffffff021916908373ffffffffffffffffffffffffffffffffffffffff16021790555050506200021f565b600033905090565b6000815190506200018a8162000205565b92915050565b60008060408385031215620001a457600080fd5b6000620001b48582860162000179565b9250506020620001c78582860162000179565b9150509250929050565b6000620001de82620001e5565b9050919050565b600073ffffffffffffffffffffffffffffffffffffffff82169050919050565b6200021081620001d1565b81146200021c57600080fd5b50565b610fa9806200022f6000396000f3fe608060405234801561001057600080fd5b50600436106100625760003560e01c806355de022514610067578063715018a6146100855780638da5cb5b1461008f57806394b918de146100ad578063f2fde38b146100c9578063fccc2813146100e5575b600080fd5b61006f610103565b60405161007c9190610c1b565b60405180910390f35b61008d610109565b005b610097610243565b6040516100a49190610abe565b60405180910390f35b6100c760048036038101906100c29190610924565b61026c565b005b6100e360048036038101906100de91906108d2565b6103e6565b005b6100ed61058f565b6040516100fa9190610abe565b60405180910390f35b6103e881565b610111610595565b73ffffffffffffffffffffffffffffffffffffffff1661012f610243565b73ffffffffffffffffffffffffffffffffffffffff1614610185576040517f08c379a000000000000000000000000000000000000000000000000000000000815260040161017c90610bbb565b60405180910390fd5b600073ffffffffffffffffffffffffffffffffffffffff1660008054906101000a900473ffffffffffffffffffffffffffffffffffffffff1673ffffffffffffffffffffffffffffffffffffffff167f8be0079c531659141344cd1fd0a4f28419497f9722a3daafe3b4186f6b6457e060405160405180910390a360008060006101000a81548173ffffffffffffffffffffffffffffffffffffffff021916908373ffffffffffffffffffffffffffffffffffffffff160217905550565b60008060009054906101000a900473ffffffffffffffffffffffffffffffffffffffff16905090565b6103e88110156102b1576040517f08c379a00000000000000000000000000000000000000000000000000000000081526004016102a890610b5b565b60405180910390fd5b60006103e8826102c19190610c68565b905060003390506103198161dead85600160009054906101000a900473ffffffffffffffffffffffffffffffffffffffff1673ffffffffffffffffffffffffffffffffffffffff1661059d909392919063ffffffff16565b600260009054906101000a900473ffffffffffffffffffffffffffffffffffffffff1673ffffffffffffffffffffffffffffffffffffffff166340c10f1982846040518363ffffffff1660e01b8152600401610376929190610b10565b600060405180830381600087803b15801561039057600080fd5b505af11580156103a4573d6000803e3d6000fd5b505050507f562c219552544ec4c9d7a8eb850f80ea152973e315372bf4999fe7c953ea004f81846040516103d9929190610b10565b60405180910390a1505050565b6103ee610595565b73ffffffffffffffffffffffffffffffffffffffff1661040c610243565b73ffffffffffffffffffffffffffffffffffffffff1614610462576040517f08c379a000000000000000000000000000000000000000000000000000000000815260040161045990610bbb565b60405180910390fd5b600073ffffffffffffffffffffffffffffffffffffffff168173ffffffffffffffffffffffffffffffffffffffff1614156104d2576040517f08c379a00000000000000000000000000000000000000000000000000000000081526004016104c990610b7b565b60405180910390fd5b8073ffffffffffffffffffffffffffffffffffffffff1660008054906101000a900473ffffffffffffffffffffffffffffffffffffffff1673ffffffffffffffffffffffffffffffffffffffff167f8be0079c531659141344cd1fd0a4f28419497f9722a3daafe3b4186f6b6457e060405160405180910390a3806000806101000a81548173ffffffffffffffffffffffffffffffffffffffff021916908373ffffffffffffffffffffffffffffffffffffffff16021790555050565b61dead81565b600033905090565b610620846323b872dd60e01b8585856040516024016105be93929190610ad9565b604051602081830303815290604052907bffffffffffffffffffffffffffffffffffffffffffffffffffffffff19166020820180517bffffffffffffffffffffffffffffffffffffffffffffffffffffffff8381831617835250505050610626565b50505050565b6000610688826040518060400160405280602081526020017f5361666545524332303a206c6f772d6c6576656c2063616c6c206661696c65648152508573ffffffffffffffffffffffffffffffffffffffff166106ed9092919063ffffffff16565b90506000815111156106e857808060200190518101906106a891906108fb565b6106e7576040517f08c379a00000000000000000000000000000000000000000000000000000000081526004016106de90610bfb565b60405180910390fd5b5b505050565b60606106fc8484600085610705565b90509392505050565b60608247101561074a576040517f08c379a000000000000000000000000000000000000000000000000000000000815260040161074190610b9b565b60405180910390fd5b61075385610819565b610792576040517f08c379a000000000000000000000000000000000000000000000000000000000815260040161078990610bdb565b60405180910390fd5b6000808673ffffffffffffffffffffffffffffffffffffffff1685876040516107bb9190610aa7565b60006040518083038185875af1925050503d80600081146107f8576040519150601f19603f3d011682016040523d82523d6000602084013e6107fd565b606091505b509150915061080d82828661082c565b92505050949350505050565b600080823b905060008111915050919050565b6060831561083c5782905061088c565b60008351111561084f5782518084602001fd5b816040517f08c379a00000000000000000000000000000000000000000000000000000000081526004016108839190610b39565b60405180910390fd5b9392505050565b6000813590506108a281610f2e565b92915050565b6000815190506108b781610f45565b92915050565b6000813590506108cc81610f5c565b92915050565b6000602082840312156108e457600080fd5b60006108f284828501610893565b91505092915050565b60006020828403121561090d57600080fd5b600061091b848285016108a8565b91505092915050565b60006020828403121561093657600080fd5b6000610944848285016108bd565b91505092915050565b61095681610c99565b82525050565b600061096782610c36565b6109718185610c4c565b9350610981818560208601610ce1565b80840191505092915050565b600061099882610c41565b6109a28185610c57565b93506109b2818560208601610ce1565b6109bb81610d43565b840191505092915050565b60006109d3606683610c57565b91506109de82610d54565b608082019050919050565b60006109f6602683610c57565b9150610a0182610def565b604082019050919050565b6000610a19602683610c57565b9150610a2482610e3e565b604082019050919050565b6000610a3c602083610c57565b9150610a4782610e8d565b602082019050919050565b6000610a5f601d83610c57565b9150610a6a82610eb6565b602082019050919050565b6000610a82602a83610c57565b9150610a8d82610edf565b604082019050919050565b610aa181610cd7565b82525050565b6000610ab3828461095c565b915081905092915050565b6000602082019050610ad3600083018461094d565b92915050565b6000606082019050610aee600083018661094d565b610afb602083018561094d565b610b086040830184610a98565b949350505050565b6000604082019050610b25600083018561094d565b610b326020830184610a98565b9392505050565b60006020820190508181036000830152610b53818461098d565b905092915050565b60006020820190508181036000830152610b74816109c6565b9050919050565b60006020820190508181036000830152610b94816109e9565b9050919050565b60006020820190508181036000830152610bb481610a0c565b9050919050565b60006020820190508181036000830152610bd481610a2f565b9050919050565b60006020820190508181036000830152610bf481610a52565b9050919050565b60006020820190508181036000830152610c1481610a75565b9050919050565b6000602082019050610c306000830184610a98565b92915050565b600081519050919050565b600081519050919050565b600081905092915050565b600082825260208201905092915050565b6000610c7382610cd7565b9150610c7e83610cd7565b925082610c8e57610c8d610d14565b5b828204905092915050565b6000610ca482610cb7565b9050919050565b60008115159050919050565b600073ffffffffffffffffffffffffffffffffffffffff82169050919050565b6000819050919050565b60005b83811015610cff578082015181840152602081019050610ce4565b83811115610d0e576000848401525b50505050565b7f4e487b7100000000000000000000000000000000000000000000000000000000600052601260045260246000fd5b6000601f19601f8301169050919050565b7f4d6f6e6b653a3a626f6e666972653a204e6f7420656e6f756768204d4f4e4b4560008201527f20546f6b656e7320666f72206275726e2e204d7573742068617665206174206c60208201527f6561737420656e6f75676820746f207361746973667920746865206275726e2060408201527f726174696f2e0000000000000000000000000000000000000000000000000000606082015250565b7f4f776e61626c653a206e6577206f776e657220697320746865207a65726f206160008201527f6464726573730000000000000000000000000000000000000000000000000000602082015250565b7f416464726573733a20696e73756666696369656e742062616c616e636520666f60008201527f722063616c6c0000000000000000000000000000000000000000000000000000602082015250565b7f4f776e61626c653a2063616c6c6572206973206e6f7420746865206f776e6572600082015250565b7f416464726573733a2063616c6c20746f206e6f6e2d636f6e7472616374000000600082015250565b7f5361666545524332303a204552433230206f7065726174696f6e20646964206e60008201527f6f74207375636365656400000000000000000000000000000000000000000000602082015250565b610f3781610c99565b8114610f4257600080fd5b50565b610f4e81610cab565b8114610f5957600080fd5b50565b610f6581610cd7565b8114610f7057600080fd5b5056fea2646970667358221220400d1d4dfa208c6037e444b39b1213f7e90379537dd85dac5ab3bbd35b0ca8a164736f6c63430008040033",
  "immutableReferences": {},
  "source": "// contracts/MonkeBonfire.sol\r\n// SPDX-License-Identifier: MIT\r\npragma solidity ^0.8.4;\r\n\r\nimport \"@openzeppelin/contracts/token/ERC20/ERC20.sol\";\r\nimport \"@openzeppelin/contracts/token/ERC20/utils/SafeERC20.sol\";\r\nimport \"@openzeppelin/contracts/access/Ownable.sol\";\r\nimport \"./Naner.sol\";\r\n\r\ncontract MonkeBonfire is Ownable {\r\n    using SafeERC20 for ERC20;\r\n\r\n    // Burn address\r\n    address public constant BURN_ADDRESS = 0x000000000000000000000000000000000000dEaD;\r\n    uint public constant BURN_RATIO = 1000;\r\n\r\n    ERC20 monke_token;\r\n    Naner banana_token;\r\n\r\n    event Swap(address from, uint amount);\r\n\r\n    constructor(address _monke_token, address _banana_token) {\r\n        monke_token = ERC20(_monke_token);\r\n        banana_token = Naner(_banana_token);\r\n    }\r\n\r\n    function swap(uint _amount) public {\r\n        require(_amount >= BURN_RATIO, \"Monke::bonfire: Not enough MONKE Tokens for burn. Must have at least enough to satisfy the burn ratio.\");\r\n        // 0.1% of transfer sent to recipient as BANANAS\r\n        uint256 sendAmount = _amount / BURN_RATIO;//divides with integrated sol 0.8 safemath\r\n        address _from = msg.sender;\r\n        monke_token.safeTransferFrom(_from, BURN_ADDRESS, _amount);\r\n        banana_token.mint(_from, sendAmount);\r\n        emit Swap(_from, _amount);\r\n    }\r\n\r\n}",
  "sourcePath": "H:/DEVELOPER/PROJECTS/monke_bonfire/contracts/MonkeBonfire.sol",
  "compiler": {
    "name": "solc",
    "version": "0.8.4+commit.c7e474f2.Emscripten.clang"
  },
  "schemaVersion": "3.4.1",
  "updatedAt": "2021-05-17T04:46:39.645Z",
  "devdoc": {
    "kind": "dev",
    "methods": {
      "owner()": {
        "details": "Returns the address of the current owner."
      },
      "renounceOwnership()": {
        "details": "Leaves the contract without owner. It will not be possible to call `onlyOwner` functions anymore. Can only be called by the current owner. NOTE: Renouncing ownership will leave the contract without an owner, thereby removing any functionality that is only available to the owner."
      },
      "transferOwnership(address)": {
        "details": "Transfers ownership of the contract to a new account (`newOwner`). Can only be called by the current owner."
      }
    },
    "version": 1
  },
  "userdoc": {
    "kind": "user",
    "methods": {},
    "version": 1
  }
}